{
  "contractName": "VotingSystem",
  "abi": [
    {
      "inputs": [],
      "stateMutability": "nonpayable",
      "type": "constructor"
    },
    {
      "inputs": [],
      "name": "admin",
      "outputs": [
        {
          "internalType": "address",
          "name": "",
          "type": "address"
        }
      ],
      "stateMutability": "view",
      "type": "function",
      "constant": true
    },
    {
      "inputs": [
        {
          "internalType": "uint256",
          "name": "",
          "type": "uint256"
        }
      ],
      "name": "polls",
      "outputs": [
        {
          "internalType": "string",
          "name": "pollName",
          "type": "string"
        },
        {
          "internalType": "uint256",
          "name": "candidatesCount",
          "type": "uint256"
        },
        {
          "internalType": "uint256",
          "name": "totalVotes",
          "type": "uint256"
        },
        {
          "internalType": "bool",
          "name": "votingOpen",
          "type": "bool"
        }
      ],
      "stateMutability": "view",
      "type": "function",
      "constant": true
    },
    {
      "inputs": [
        {
          "internalType": "address",
          "name": "",
          "type": "address"
        }
      ],
      "name": "registeredVoters",
      "outputs": [
        {
          "internalType": "bytes32",
          "name": "",
          "type": "bytes32"
        }
      ],
      "stateMutability": "view",
      "type": "function",
      "constant": true
    },
    {
      "inputs": [
        {
          "internalType": "string",
          "name": "_pollName",
          "type": "string"
        }
      ],
      "name": "createPoll",
      "outputs": [],
      "stateMutability": "nonpayable",
      "type": "function"
    },
    {
      "inputs": [
        {
          "internalType": "string",
          "name": "_pollName",
          "type": "string"
        },
        {
          "internalType": "string[]",
          "name": "_candidates",
          "type": "string[]"
        }
      ],
      "name": "createPollWithCandidates",
      "outputs": [],
      "stateMutability": "nonpayable",
      "type": "function"
    },
    {
      "inputs": [
        {
          "internalType": "uint256",
          "name": "pollIndex",
          "type": "uint256"
        },
        {
          "internalType": "string",
          "name": "name",
          "type": "string"
        }
      ],
      "name": "addCandidate",
      "outputs": [],
      "stateMutability": "nonpayable",
      "type": "function"
    },
    {
      "inputs": [
        {
          "internalType": "uint256",
          "name": "_pollIndex",
          "type": "uint256"
        },
        {
          "internalType": "uint256",
          "name": "_index",
          "type": "uint256"
        }
      ],
      "name": "getVoteCandidate",
      "outputs": [
        {
          "components": [
            {
              "internalType": "uint256",
              "name": "id",
              "type": "uint256"
            },
            {
              "internalType": "string",
              "name": "name",
              "type": "string"
            },
            {
              "internalType": "uint256",
              "name": "voteCount",
              "type": "uint256"
            }
          ],
          "internalType": "struct VotingSystem.Candidate",
          "name": "",
          "type": "tuple"
        }
      ],
      "stateMutability": "view",
      "type": "function",
      "constant": true
    },
    {
      "inputs": [],
      "name": "getPollsCount",
      "outputs": [
        {
          "internalType": "uint256",
          "name": "",
          "type": "uint256"
        }
      ],
      "stateMutability": "view",
      "type": "function",
      "constant": true
    },
    {
      "inputs": [
        {
          "internalType": "string",
          "name": "passphrase",
          "type": "string"
        }
      ],
      "name": "register",
      "outputs": [],
      "stateMutability": "nonpayable",
      "type": "function"
    },
    {
      "inputs": [
        {
          "internalType": "uint256",
          "name": "_poll",
          "type": "uint256"
        }
      ],
      "name": "hasVoted",
      "outputs": [
        {
          "internalType": "bool",
          "name": "",
          "type": "bool"
        }
      ],
      "stateMutability": "view",
      "type": "function",
      "constant": true
    },
    {
      "inputs": [
        {
          "internalType": "uint256",
          "name": "pollIndex",
          "type": "uint256"
        },
        {
          "internalType": "uint256",
          "name": "candidateId",
          "type": "uint256"
        },
        {
          "internalType": "string",
          "name": "passphrase",
          "type": "string"
        }
      ],
      "name": "vote",
      "outputs": [],
      "stateMutability": "nonpayable",
      "type": "function"
    },
    {
      "inputs": [
        {
          "internalType": "uint256",
          "name": "pollIndex",
          "type": "uint256"
        }
      ],
      "name": "openVoting",
      "outputs": [],
      "stateMutability": "nonpayable",
      "type": "function"
    },
    {
      "inputs": [
        {
          "internalType": "uint256",
          "name": "pollIndex",
          "type": "uint256"
        }
      ],
      "name": "closeVoting",
      "outputs": [],
      "stateMutability": "nonpayable",
      "type": "function"
    }
  ],
  "bytecode": "0x608060405234801561001057600080fd5b50600080546001600160a01b0319163317905561129d806100326000396000f3fe608060405234801561001057600080fd5b50600436106100df5760003560e01c8063ac2f00741161008c578063e099591611610066578063e0995916146101ce578063ecca031f146101d6578063f2c298be146101f9578063f851a4401461020c57600080fd5b8063ac2f007414610178578063d2111a721461019b578063d4db23e9146101ae57600080fd5b806374a9ced9116100bd57806374a9ced91461011f578063a1bbfc0514610132578063a9ff6df11461014557600080fd5b80631750a3d0146100e45780632df9c501146100f95780635f2ba6b21461010c575b600080fd5b6100f76100f2366004610fd1565b610237565b005b6100f7610107366004610ece565b6103d9565b6100f761011a366004610fb8565b61049c565b6100f761012d366004610e91565b6105e0565b6100f761014036600461103a565b6106ac565b610165610153366004610e61565b60016020526000908152604090205481565b6040519081526020015b60405180910390f35b61018b610186366004610fb8565b610953565b60405161016f94939291906110d2565b6100f76101a9366004610fb8565b610a20565b6101c16101bc366004611018565b610b60565b60405161016f9190611103565b600254610165565b6101e96101e4366004610fb8565b610c80565b604051901515815260200161016f565b6100f7610207366004610e91565b610cbe565b60005461021f906001600160a01b031681565b6040516001600160a01b03909116815260200161016f565b6000546001600160a01b031633146102a15760405162461bcd60e51b815260206004820152602260248201527f4f6e6c792061646d696e2063616e20706572666f726d2074686973206163746960448201526137b760f11b60648201526084015b60405180910390fd5b60025482106102f25760405162461bcd60e51b815260206004820152601260248201527f496e76616c696420706f6c6c20696e64657800000000000000000000000000006044820152606401610298565b600282815481106103055761030561123b565b90600052602060002090600602016001016040518060600160405280600285815481106103345761033461123b565b6000918252602080832060026006909302019190910154835282810186905260409092018190528354600181810186559482529082902083516003909202019081558282015180519394919361039293928501929190910190610d58565b50604082015181600201555050600282815481106103b2576103b261123b565b6000918252602082206002600690920201018054916103d08361120a565b91905055505050565b6000546001600160a01b0316331461043e5760405162461bcd60e51b815260206004820152602260248201527f4f6e6c792061646d696e2063616e20706572666f726d2074686973206163746960448201526137b760f11b6064820152608401610298565b610447826105e0565b60005b8151811015610497576002546104859061046690600190611188565b8383815181106104785761047861123b565b6020026020010151610237565b8061048f8161120a565b91505061044a565b505050565b6000546001600160a01b031633146105015760405162461bcd60e51b815260206004820152602260248201527f4f6e6c792061646d696e2063616e20706572666f726d2074686973206163746960448201526137b760f11b6064820152608401610298565b60025481106105525760405162461bcd60e51b815260206004820152601260248201527f496e76616c696420706f6c6c20696e64657800000000000000000000000000006044820152606401610298565b6000600282815481106105675761056761123b565b60009182526020909120600690910201600581015490915060ff16156105cf5760405162461bcd60e51b815260206004820152601660248201527f566f74696e6720697320616c7265616479206f70656e000000000000000000006044820152606401610298565b600501805460ff1916600117905550565b6000546001600160a01b031633146106455760405162461bcd60e51b815260206004820152602260248201527f4f6e6c792061646d696e2063616e20706572666f726d2074686973206163746960448201526137b760f11b6064820152608401610298565b60028054600181018255600091909152815160069091027f405787fa12a823e0f2b7631cc41b3ba8828b3321ca811111fa75cd3aa3bb5ace019061068f9082906020850190610d58565b506000600282018190556003820155600501805460ff1916905550565b60025483106106fd5760405162461bcd60e51b815260206004820152601260248201527f496e76616c696420706f6c6c20696e64657800000000000000000000000000006044820152606401610298565b6000600284815481106107125761071261123b565b600091825260208083203384526001909152604090922054600690910290910191506107805760405162461bcd60e51b815260206004820152601660248201527f596f7520617265206e6f742072656769737465726564000000000000000000006044820152606401610298565b33600090815260048201602052604090205460ff16156107e25760405162461bcd60e51b815260206004820152601660248201527f596f75206861766520616c726561647920766f746564000000000000000000006044820152606401610298565b6000826040516020016107f591906110b6565b60408051601f1981840301815291815281516020928301203360009081526001909352912054909150811461086c5760405162461bcd60e51b815260206004820152601460248201527f496e636f727265637420706173737068726173650000000000000000000000006044820152606401610298565b816002015484106108bf5760405162461bcd60e51b815260206004820152601160248201527f496e76616c69642063616e6469646174650000000000000000000000000000006044820152606401610298565b3360009081526004830160205260409020805460ff1916600190811782559081018190558281018054869081106108f8576108f861123b565b906000526020600020906003020160020160008282546109189190611170565b909155505033600090815260048301602052604081206001015460038401805491929091610947908490611170565b90915550505050505050565b6002818154811061096357600080fd5b9060005260206000209060060201600091509050806000018054610986906111cf565b80601f01602080910402602001604051908101604052809291908181526020018280546109b2906111cf565b80156109ff5780601f106109d4576101008083540402835291602001916109ff565b820191906000526020600020905b8154815290600101906020018083116109e257829003601f168201915b50505050600283015460038401546005909401549293909290915060ff1684565b6000546001600160a01b03163314610a855760405162461bcd60e51b815260206004820152602260248201527f4f6e6c792061646d696e2063616e20706572666f726d2074686973206163746960448201526137b760f11b6064820152608401610298565b6002548110610ad65760405162461bcd60e51b815260206004820152601260248201527f496e76616c696420706f6c6c20696e64657800000000000000000000000000006044820152606401610298565b600060028281548110610aeb57610aeb61123b565b60009182526020909120600690910201600581015490915060ff16610b525760405162461bcd60e51b815260206004820152601260248201527f566f74696e67206973206e6f74206f70656e00000000000000000000000000006044820152606401610298565b600501805460ff1916905550565b610b8460405180606001604052806000815260200160608152602001600081525090565b60028381548110610b9757610b9761123b565b90600052602060002090600602016001018281548110610bb957610bb961123b565b906000526020600020906003020160405180606001604052908160008201548152602001600182018054610bec906111cf565b80601f0160208091040260200160405190810160405280929190818152602001828054610c18906111cf565b8015610c655780601f10610c3a57610100808354040283529160200191610c65565b820191906000526020600020905b815481529060010190602001808311610c4857829003601f168201915b50505050508152602001600282015481525050905092915050565b600060028281548110610c9557610c9561123b565b600091825260208083203384526004600690930201919091019052604090205460ff1692915050565b3360009081526001602052604090205415610d1b5760405162461bcd60e51b815260206004820152601b60248201527f596f75206861766520616c7265616479207265676973746572656400000000006044820152606401610298565b600081604051602001610d2e91906110b6565b60408051601f19818403018152918152815160209283012033600090815260019093529120555050565b828054610d64906111cf565b90600052602060002090601f016020900481019282610d865760008555610dcc565b82601f10610d9f57805160ff1916838001178555610dcc565b82800160010185558215610dcc579182015b82811115610dcc578251825591602001919060010190610db1565b50610dd8929150610ddc565b5090565b5b80821115610dd85760008155600101610ddd565b600082601f830112610e0257600080fd5b813567ffffffffffffffff811115610e1c57610e1c611251565b610e2f601f8201601f191660200161113f565b818152846020838601011115610e4457600080fd5b816020850160208301376000918101602001919091529392505050565b600060208284031215610e7357600080fd5b81356001600160a01b0381168114610e8a57600080fd5b9392505050565b600060208284031215610ea357600080fd5b813567ffffffffffffffff811115610eba57600080fd5b610ec684828501610df1565b949350505050565b60008060408385031215610ee157600080fd5b823567ffffffffffffffff80821115610ef957600080fd5b610f0586838701610df1565b9350602091508185013581811115610f1c57600080fd5b8501601f81018713610f2d57600080fd5b803582811115610f3f57610f3f611251565b8060051b610f4e85820161113f565b8281528581019084870183860188018c1015610f6957600080fd5b60009350835b85811015610fa657813588811115610f85578586fd5b610f938e8b838b0101610df1565b8552509288019290880190600101610f6f565b50989b909a5098505050505050505050565b600060208284031215610fca57600080fd5b5035919050565b60008060408385031215610fe457600080fd5b82359150602083013567ffffffffffffffff81111561100257600080fd5b61100e85828601610df1565b9150509250929050565b6000806040838503121561102b57600080fd5b50508035926020909101359150565b60008060006060848603121561104f57600080fd5b8335925060208401359150604084013567ffffffffffffffff81111561107457600080fd5b61108086828701610df1565b9150509250925092565b600081518084526110a281602086016020860161119f565b601f01601f19169290920160200192915050565b600082516110c881846020870161119f565b9190910192915050565b6080815260006110e5608083018761108a565b60208301959095525060408101929092521515606090910152919050565b60208152815160208201526000602083015160606040840152611129608084018261108a565b9050604084015160608401528091505092915050565b604051601f8201601f1916810167ffffffffffffffff8111828210171561116857611168611251565b604052919050565b6000821982111561118357611183611225565b500190565b60008282101561119a5761119a611225565b500390565b60005b838110156111ba5781810151838201526020016111a2565b838111156111c9576000848401525b50505050565b600181811c908216806111e357607f821691505b6020821081141561120457634e487b7160e01b600052602260045260246000fd5b50919050565b600060001982141561121e5761121e611225565b5060010190565b634e487b7160e01b600052601160045260246000fd5b634e487b7160e01b600052603260045260246000fd5b634e487b7160e01b600052604160045260246000fdfea264697066735822122011b06dc52e90b51d024b0114d2b2d976def5045ab571da9f9b209ea307bc0f8764736f6c63430008070033",
  "immutableReferences": {},
  "source": "// SPDX-License-Identifier: MIT\npragma solidity ^0.8.0;\n\ncontract VotingSystem {\n    struct Candidate {\n        uint id;\n        string name;\n        uint voteCount;\n    }\n\n    struct Voter {\n        bool voted;\n        uint weight;\n    }\n\n    struct Poll {\n        string pollName;\n        Candidate[] candidates;\n        uint candidatesCount;\n        uint totalVotes;\n        mapping(address => Voter) voters;\n        bool votingOpen;\n    }\n\n    address public admin;\n    mapping(address => bytes32) public registeredVoters;\n    Poll[] public polls;\n\n    constructor() {\n        admin = msg.sender;\n    }\n\n    function createPoll(string memory _pollName) public onlyAdmin {\n        Poll storage poll = polls.push();\n        poll.pollName = _pollName;\n        poll.candidatesCount = 0;\n        poll.totalVotes = 0;\n        poll.votingOpen = false;\n    }\n\n    function createPollWithCandidates(\n        string memory _pollName,\n        string[] memory _candidates\n    ) public onlyAdmin {\n        createPoll(_pollName);\n\n        for (uint i = 0; i < _candidates.length; i++) {\n            addCandidate(polls.length - 1, _candidates[i]);\n        }\n    }\n\n    function addCandidate(uint pollIndex, string memory name) public onlyAdmin {\n        require(pollIndex < polls.length, \"Invalid poll index\");\n        polls[pollIndex].candidates.push(\n            Candidate(polls[pollIndex].candidatesCount, name, 0)\n        );\n        polls[pollIndex].candidatesCount++;\n    }\n\n    function getVoteCandidate(\n        uint _pollIndex,\n        uint _index\n    ) public view returns (Candidate memory) {\n        return polls[_pollIndex].candidates[_index];\n    }\n\n    function getPollsCount() public view returns (uint) {\n        return polls.length;\n    }\n\n    function register(string memory passphrase) public {\n        require(\n            !(registeredVoters[msg.sender] != 0),\n            \"You have already registered\"\n        );\n        bytes32 _p = keccak256(abi.encodePacked(passphrase));\n        registeredVoters[msg.sender] = _p;\n    }\n\n    function hasVoted(uint _poll) public view returns (bool) {\n        return polls[_poll].voters[msg.sender].voted;\n    }\n\n    function vote(\n        uint pollIndex,\n        uint candidateId,\n        string memory passphrase\n    ) public {\n        require(pollIndex < polls.length, \"Invalid poll index\");\n        Poll storage poll = polls[pollIndex];\n        require(registeredVoters[msg.sender] != 0, \"You are not registered\");\n        require(!poll.voters[msg.sender].voted, \"You have already voted\");\n        bytes32 _p = keccak256(abi.encodePacked(passphrase));\n        require(registeredVoters[msg.sender] == _p, \"Incorrect passphrase\");\n        require(candidateId < poll.candidatesCount, \"Invalid candidate\");\n        poll.voters[msg.sender].voted = true;\n        poll.voters[msg.sender].weight = 1;\n        poll.candidates[candidateId].voteCount += poll\n            .voters[msg.sender]\n            .weight;\n        poll.totalVotes += poll.voters[msg.sender].weight;\n    }\n\n    function openVoting(uint pollIndex) public onlyAdmin {\n        require(pollIndex < polls.length, \"Invalid poll index\");\n        Poll storage poll = polls[pollIndex];\n        require(!poll.votingOpen, \"Voting is already open\");\n        poll.votingOpen = true;\n    }\n\n    function closeVoting(uint pollIndex) public onlyAdmin {\n        require(pollIndex < polls.length, \"Invalid poll index\");\n        Poll storage poll = polls[pollIndex];\n        require(poll.votingOpen, \"Voting is not open\");\n        poll.votingOpen = false;\n    }\n\n    modifier onlyAdmin() {\n        require(msg.sender == admin, \"Only admin can perform this action\");\n        _;\n    }\n}\n",
  "sourcePath": "/Users/obedovabor/Projects/Blockchain/bimodal-voring/contracts/Voting.sol",
  "compiler": {
    "name": "solc",
    "version": "0.8.7+commit.e28d00a7.Emscripten.clang"
  },
  "schemaVersion": "3.4.11",
  "updatedAt": "2023-04-09T21:22:06.249Z",
  "networkType": "ethereum",
  "devdoc": {
    "kind": "dev",
    "methods": {},
    "version": 1
  },
  "userdoc": {
    "kind": "user",
    "methods": {},
    "version": 1
  }
}